:100000000C94E8010C940D040C9405020C94050268
:100010000C9405020C9405020C9405020C94050244
:100020000C9405020C9405020C9405020C94050234
:100030000C9405020C9405020C9495030C94050293
:100040000C9405020C9405020C94BA030C9405025E
:100050000C9405020C94E0030C9405020C94050228
:100060000C9405020C9405024B04520459046004DC
:1000700067046E0475047C04910498049F04A6042C
:10008000AD04B404BB04C204F504FD0405050D056C
:1000900015051D0525052D05000000000000005F69
:1000A00000000007000700147F147F14242A7F2A11
:1000B000124C2C106864364955225000050300008C
:1000C000001C2241000041221C0014083E081408B4
:1000D000083E08080000503000101010101000609A
:1000E00060000020100804023E5149453E00427F56
:1000F000400042615149462141454B311814127F5D
:100100001027454545393C4A4949300171090503E5
:100110003649494936064949291E0036360000004D
:10012000563600000814224100141414141400411F
:100130002214080201510906324979413E7E11110B
:10014000117E7F494949363E414141227F4141224A
:100150001C7F494949417F090909013E4149497AC2
:100160007F0808087F00417F41002040413F017F18
:10017000081422417F404040407F020C027F7F04F0
:1001800008107F3E4141413E7F090909063E415129
:10019000215E7F09192946464949493101017F01FC
:1001A000013F4040403F1F2040201F3F4038403F1C
:1001B0006314081463070870080761514945430038
:1001C0007F41410002040810200041417F000402E9
:1001D0000102044040404040000102040020545409
:1001E00054787F4844443838444444203844444890
:1001F0007F3854545418087E0901020C5252523E62
:100200007F0804047800447D40002040443D007F86
:100210001028440000417F40007C041804787C08CA
:1002200004047838444444387C1414140808141422
:10023000187C7C080404084854545420043F44406B
:10024000203C4040207C1C2040201C3C4030403C56
:1002500044281028440C5050503C4464544C4400F2
:100260000836410000007F00000041360800080405
:10027000081008FFFFFFFFFF7C1211127C7F494925
:1002800049317F494949367F01010101603F213FE2
:10029000607F4949494177087F08772241494936BB
:1002A0007F1008047F7E1009047E7F0814224140DD
:1002B0003E01017F7F020C027F7F0808087F3E41DC
:1002C00041413E7F0101017F7F090909063E41410D
:1002D000412201017F0101074848483F0E117F116B
:1002E0000E63140814633F20203F60070808087F4E
:1002F0007F407E407F3F203F207F017F4848307F06
:100300004830007F007F484830224149493E7F08FD
:100310003E413E462919097F20545454783C4A4AAC
:100320004A317C545428007C04040C00603C243C7A
:100330006038545454186C107C106C004454542889
:100340007C2010087C7C2112097C7C102844004011
:100350003804047C7C0810087C7C1010107C384425
:100360004444387C0404047C7C1414140838444449
:10037000440004047C04040C5050503C08147C14C9
:100380000844281028443C20203C600C1010107CAD
:100390007C407C407C3C203C207C047C5050207C79
:1003A0005020007C007C50502028445454387C104D
:1003B000384438485434147CAEA83FD30040A1C818
:1003C000DA12817FA4A6D5808D142000A1C8AF00C9
:1003D00011241FBECFEFD8E0DEBFCDBF11E0A0E0FB
:1003E000B1E0ECE9F3E102C005900D92A636B10749
:1003F000D9F726E0A6E6B1E001C01D92AC38B207FD
:10040000E1F70E94E4020C94CC090C94000087B13F
:100410008E7F87B988B18E7F88B9EAE7F0E0808166
:100420008F6E8083ECE7F0E08081806480830895A4
:10043000FC01208130E0322F22278181280F311DDD
:10044000338322830895EEE7F2E0918380839583DE
:10045000848361507109860F971F9383828317826B
:1004600016820895EEE7F2E04481558122813381BE
:100470004217530728F020917E0230917F0204C07A
:100480002091820230918302EEE7F2E035832483EB
:10049000A481B5818C938481958101969583848311
:1004A000868197810196978386830895CF93DF9302
:1004B0008091840290918502892B71F0CEE7D2E081
:1004C0006E817F81888199810E94AC021F821E8289
:1004D000888199819D838C83DF91CF910895CF93FB
:1004E000C82F8A3019F48DE00E946F028091C000FD
:1004F00085FFFCCFC093C60080E090E0CF910895C7
:1005000095B180E2892785B908950F931F93072F2E
:10051000182F292F33270093C5006093C40082E071
:100520008093C000E1ECF0E088E1808386E0809376
:10053000C20080818068808380E091E0909389068A
:10054000809388061F910F9108959091C00095FFA8
:10055000FCCF8093C60008950F931F93CF93DF9332
:10056000FC01EB0108C08F010F5F1F4F80810E94CB
:10057000A5022197F8012097B1F7DF91CF911F9144
:100580000F91089515BC14BC84B5826084BDEEE65D
:10059000F0E080818260808389EF87BD85B58160CE
:1005A00085BD85B5826085BD08958AB18B7F8AB986
:1005B0008BB184608BB9E9E6F0E080818160808353
:1005C0008DB381608DBB0895F89460E170E080E0A8
:1005D00090E00E9485020E94C20260E071E08AE71A
:1005E00091E00E9423020E944E060E9407020E9490
:1005F000D502789440906601509067016090680140
:10060000709069018090660190906701A0906801E8
:10061000B0906901C0906601D0906701E0906801D8
:10062000F090690184B1806284B90E94A80540E11C
:1006300050E068E070E08AE691E00E9485090E943F
:100640004105C0E08091660190916701A091680129
:10065000B091690184199509A609B709843F9140B1
:10066000A105B10558F00E948002CF5F409066015D
:1006700050906701609068017090690180916601F7
:1006800090916701A0916801B09169018819990959
:10069000AA09BB0988389341A105B10550F00E9411
:1006A00056028090660190906701A0906801B0901A
:1006B00069018091660190916701A0916801B091F4
:1006C00069018C199D09AE09BF09883E9340A105B7
:1006D000B105C0F0EAE7F2E083818F9382818F93C6
:1006E0008EE091E09F938F930E949E06C0906601DA
:1006F000D0906701E0906801F09069010F900F9031
:100700000F900F90C83008F0C0E08C2F0E94880432
:100710008C2F0E94330460917C0270917D028C2F9B
:100720000E94CC040E94DB058DCF1F920F920FB662
:100730000F9211248F939F93AF93BF938091660183
:1007400090916701A0916801B09169010196A11D86
:10075000B11D8093660190936701A0936801B093E7
:100760006901BF91AF919F918F910F900FBE0F9034
:100770001F9018951F920F920FB60F9211242F936E
:100780003F934F935F936F937F938F939F93AF9319
:10079000BF93EF93FF938091C6000E943202FF91B6
:1007A000EF91BF91AF919F918F917F916F915F91E9
:1007B0004F913F912F910F900FBE0F901F90189562
:1007C0001F920F920FB60F9211242F933F934F93C6
:1007D0005F936F937F938F939F93AF93BF93EF93A9
:1007E000FF9380917800EAE7F2E0818380917900BD
:1007F0008083CF010E941802FF91EF91BF91AF91CA
:100800009F918F917F916F915F914F913F912F9128
:100810000F900FBE0F901F9018951F920F920FB65A
:100820000F9211242F933F934F935F936F937F9376
:100830008F939F93AF93BF93EF93FF938AE191E0E0
:100840000E94B406FF91EF91BF91AF919F918F915C
:100850007F916F915F914F913F912F910F900FBEBC
:100860000F901F901895CF93DF93D82FC0E007C04B
:1008700042E651E06C2F80E00E943806CF5FC8301E
:10088000B8F38D2F90E088309105E8F5FC01EC5C21
:10089000FF4F0C9473064DE151E060E080E00E9450
:1008A000380633C04DE151E061E080E00E94380637
:1008B0002CC04DE151E062E080E00E94380625C086
:1008C0004DE151E063E080E00E9438061EC04DE13A
:1008D00051E064E080E00E94380617C04DE151E02D
:1008E00065E080E00E94380610C04DE151E066E00E
:1008F00080E00E94380609C04DE151E067E080E0E9
:100900000E94380602C00E948C05DF91CF910895A5
:1009100090E088309105E8F5FC01E45CFF4F0C9411
:10092000730641E251E060E089E10E9438060895D3
:1009300049E251E061E089E10E943806089541E30F
:1009400051E062E089E10E943806089549E351E0F0
:1009500063E089E10E943806089541E451E064E0D3
:1009600089E10E943806089549E451E065E089E193
:100970000E943806089541E551E066E089E10E9451
:100980003806089549E551E067E089E10E9438069C
:1009900008950E948C0508951F93CF93DF93CDB7E0
:1009A000DEB728970FB6F894DEBF0FBECDBF182F65
:1009B000CB01BE016F5F7F4F28E0FB0111922A95AA
:1009C000E9F74AE00E94790641E651E0612F84E6AA
:1009D0000E943806812F90E08830910508F045C0CC
:1009E000FC01EC5BFF4F0C947306AE014F5F5F4F51
:1009F00060E084E60E9438063AC0AE014F5F5F4F68
:100A000061E084E60E94380632C0AE014F5F5F4F5E
:100A100062E084E60E9438062AC0AE014F5F5F4F55
:100A200063E084E60E94380622C0AE014F5F5F4F4C
:100A300064E084E60E9438061AC0AE014F5F5F4F43
:100A400065E084E60E94380612C0AE014F5F5F4F3A
:100A500066E084E60E9438060AC0AE014F5F5F4F31
:100A600067E084E60E94380602C00E948C05289642
:100A70000FB6F894DEBF0FBECDBFDF91CF911F91AF
:100A80000895CF93DF9361E280E00E94C30560E0A8
:100A900080E00E94C3056FE780E00E94C30562E228
:100AA00080E00E94C30560E080E00E94C30567E02B
:100AB00080E00E94C3050E9457068CE30E946F06E7
:100AC00080E40E946306C0E0D0E004C08FEF0E9483
:100AD00063062196C834D105C8F30E945F062FEF44
:100AE0008BE792E9215080409040E1F700C0000080
:100AF0000E948C05C0E009C08C2F0E94880460E031
:100B000070E08C2F0E94CC04CF5FC830A8F30E9405
:100B1000DB05DF91CF910895CF93DF930E945706B5
:100B20008CE30E946F0680E40E946306D0E009C057
:100B300080E00E946306CF5F01C0C0E0CC23C4F711
:100B4000DF5FD830D0F30E945F06DF91CF91089528
:100B5000CF930E9457068CE30E946F06C0E00BC043
:100B600080E80E946306EC2FF0E0E854FC4F84918B
:100B70000E946306CF5FC73198F30E945F060E9410
:100B80008C05CF910895CF93DF93C62F882311F062
:100B9000D0E401C0D0E80E9457068CE30E946F06A3
:100BA0008D2F0E9463068C2F0E9463060E945F06B1
:100BB000DF91CF910895CF93DF9361E280E00E94AF
:100BC000C30560E080E00E94C3056FE780E00E94FB
:100BD000C30562E280E00E94C30560E080E00E94FD
:100BE000C30567E080E00E94C305C0E0D0E008C014
:100BF000FE01EA57FD4F608181E00E94C305219606
:100C0000C11584E0D807A0F3DF91CF91089589370B
:100C100070F5683060F570EE740F703630F0403C5F
:100C200018F070EA740F01C075E590E01EC0482FFF
:100C300050E020E8629F400D511D1124E92FF0E0A3
:100C40004E0F5F1F272F30E0D901AA0FBB1FAA0F3D
:100C5000BB1F2A0F3B1FE20FF31FE856FF4FE49123
:100C6000DA01AA57BD4FEC939F5F953000F30895CA
:100C70000F931F93CF93DF93182F062FEA0106C01F
:100C80002196602F812F0E9407061A5F488141112B
:100C9000F7CFDF91CF911F910F91089588E0809356
:100CA000BA001092B90082E08093B800089584EAF7
:100CB0008093BC008091BC008823E4F7089584E908
:100CC0008093BC0008958093BB0084E88093BC00AF
:100CD0008091BC008823E4F78091B9000895880FC3
:100CE0000E9463060895EE0FFF1F0590F491E02D1A
:100CF0000994BB274A3031F4992322F4BDE2909540
:100D000081959F4F0C948506BB27FB015527AA2789
:100D1000880F991FAA1FA41710F0A41B8395505188
:100D2000B9F7A05DAA3308F0A95DA193009779F700
:100D3000B111B1931192CB010C94DB08A0E0B0E0AB
:100D4000E4EAF6E00C94A509AE014B5F5F4FFA01AF
:100D500061917191AF0180918806909189060E94FE
:100D6000E406E2E00C94C1090F931F93CF93DF9345
:100D7000E0918806F0918906238121FF1BC08C0138
:100D8000D0E0C0E0F80181918F01609188067091F8
:100D90008906DB011896ED91FC911997882331F0B3
:100DA0000995892B79F3DFEFCFEFECCF8AE0099536
:100DB000892B19F08FEF9FEF02C08D2F9C2FDF91B1
:100DC000CF911F910F910895ABE0B0E0EAEEF6E00D
:100DD0000C9495096C017B018A01FC011782168233
:100DE000838181FFCCC1CE0101963C01F601938144
:100DF000F70193FD859193FF81917F01882309F489
:100E0000BAC1853239F493FD859193FF81917F01B9
:100E1000853229F4B60190E00E94EB08E7CF912CCF
:100E2000212C312CFFE1F315D8F08B3279F038F416
:100E3000803279F08332A1F4232D20611DC08D32E0
:100E400061F0803369F4232D216016C0832D826008
:100E5000382EE32DE4603E2E2AC0F32DF8601DC02D
:100E600037FC2DC020ED280F2A3040F08E32B9F427
:100E700036FC81C1232D2064322E19C036FE06C0F7
:100E80008AE0989E200D1124922E11C0EAE02E9E39
:100E9000200D1124222EF32DF0623F2E08C08C3637
:100EA00021F4832D8068382E02C0883641F4F70182
:100EB00093FD859193FF81917F018111B3CF982F8D
:100EC0009F7D9554933028F40C5F1F4F9FE39983C7
:100ED0000DC0833631F0833771F0833509F059C086
:100EE00021C0F801808189830E5F1F4F882483947D
:100EF000912C530113C02801F2E04F0E511CF80150
:100F0000A080B18036FE03C0692D70E002C06FEF93
:100F10007FEFC5010E94D0084C018201F32DFF77BD
:100F20003F2E16C0280122E0420E511CF801A0807D
:100F3000B18036FE03C0692D70E002C06FEF7FEF15
:100F4000C5010E94C5084C01F32DF0683F2E8201B7
:100F500033FC1BC0822D90E088169906B0F4B601D0
:100F600080E290E00E94EB082A94F4CFF50137FC70
:100F7000859137FE81915F01B60190E00E94EB08F8
:100F800021102A9421E0821A91088114910471F7AA
:100F9000E8C0843611F0893641F5F80137FE07C004
:100FA00060817181828193810C5F1F4F08C06081D5
:100FB0007181072E000C880B990B0E5F1F4FF32DCC
:100FC000FF763F2E97FF09C09095809570956195AB
:100FD0007F4F8F4F9F4FF0683F2E2AE030E0A301F4
:100FE0000E942709882E861845C0853731F4232DA5
:100FF0002F7EB22E2AE030E025C0932D997FB92EA6
:101000008F36C1F018F4883579F0B5C0803719F003
:10101000883721F0B0C0E92FE061BE2EB4FE0DC0CC
:10102000FB2DF460BF2E09C034FE0AC0292F2660B4
:10103000B22E06C028E030E005C020E130E002C05A
:1010400020E132E0F801B7FE07C060817181828142
:1010500093810C5F1F4F06C06081718180E090E03A
:101060000E5F1F4FA3010E942709882E8618FB2DB3
:10107000FF773F2E36FE0DC0232D2E7FA22E891422
:1010800058F434FE0BC032FC09C0832D8E7EA82E8E
:1010900005C0B82CA32C03C0B82C01C0B92CA4FEE9
:1010A0000FC0FE01E80DF11D8081803321F49A2DDF
:1010B000997EA92E09C0A2FE06C0B394B39404C0C1
:1010C0008A2D867809F0B394A3FC11C0A0FE06C057
:1010D000B21488F4280C922C9B180EC0B21460F441
:1010E000B60180E290E00E94EB08B394F7CFB2140F
:1010F00018F42B1802C0982C212CA4FE10C0B601A5
:1011000080E390E00E94EB08A2FE17C0A1FC03C0A0
:1011100088E790E002C088E590E0B6010CC08A2D17
:10112000867859F0A1FE02C08BE201C080E2A7FCE4
:101130008DE2B60190E00E94EB08891438F4B60104
:1011400080E390E00E94EB089A94F7CF8A94F30131
:10115000E80DF11D8081B60190E00E94EB0881103E
:10116000F5CF222009F442CEB60180E290E00E9441
:10117000EB082A94F6CFF6018681978102C08FEFA3
:101180009FEF2B96E2E10C94B109FC0105906150B0
:1011900070400110D8F7809590958E0F9F1F08958D
:1011A000FC016150704001900110D8F78095909536
:1011B0008E0F9F1F0895DC01FC01672F719177232B
:1011C000E1F7329704C07C916D9370836291AE1702
:1011D000BF07C8F308950F931F93CF93DF93FB01CD
:1011E000238121FD03C08FEF9FEF2CC022FF16C08B
:1011F00046815781248135814217530744F4A081E9
:10120000B1819D012F5F3F4F318320838C932681D5
:1012100037812F5F3F4F3783268314C08B01EC014A
:10122000FB010084F185E02D0995892BE1F6D801B9
:1012300016968D919C911797019617969C938E9375
:101240001697CE01DF91CF911F910F910895FA016A
:10125000AA27283051F1203181F1E8946F936E7FF5
:101260006E5F7F4F8F4F9F4FAF4FB1E03ED0B4E0E6
:101270003CD0670F781F891F9A1FA11D680F791F27
:101280008A1F911DA11D6A0F711D811D911DA11D38
:1012900020D009F468943F912AE0269F1124301948
:1012A000305D3193DEF6CF010895462F4770405DE3
:1012B0004193B3E00FD0C9F7F6CF462F4F70405D92
:1012C0004A3318F0495D31FD4052419302D0A9F7ED
:1012D000EACFB4E0A6959795879577956795BA95E7
:1012E000C9F700976105710508959B01AC010A2EAD
:1012F00006945795479537952795BA95C9F7620F84
:10130000731F841F951FA01D0895DC01CB01FC01F4
:10131000F999FECF06C0F2BDE1BDF89A319600B44E
:101320000D9241505040B8F708952F923F924F923E
:101330005F926F927F928F929F92AF92BF92CF9265
:10134000DF92EF92FF920F931F93CF93DF93CDB76E
:10135000DEB7CA1BDB0B0FB6F894DEBF0FBECDBFE6
:1013600009942A88398848885F846E847D848C84B7
:101370009B84AA84B984C884DF80EE80FD800C81C0
:101380001B81AA81B981CE0FD11D0FB6F894DEBFA3
:0C1390000FBECDBFED010895F894FFCF13
:10139C0000000002000000006F02000000007661F7
:1013AC006C5F66756E3D25640A004849002D3E3E13
:1013BC00003120706F696E74003220706F696E742A
:1013CC00003320706F696E74003420706F696E7416
:1013DC00003520706F696E74003620706F696E7402
:1013EC00003720706F696E74003820706F696E74EE
:0613FC000020202020006B
:00000001FF
